{
  "contractName": "Boltcoin",
  "abi": [
    {
      "inputs": [
        {
          "internalType": "uint256",
          "name": "_initialSupply",
          "type": "uint256"
        }
      ],
      "payable": false,
      "stateMutability": "nonpayable",
      "type": "constructor"
    },
    {
      "anonymous": false,
      "inputs": [
        {
          "indexed": true,
          "internalType": "address",
          "name": "_owner",
          "type": "address"
        },
        {
          "indexed": true,
          "internalType": "address",
          "name": "_spender",
          "type": "address"
        },
        {
          "indexed": false,
          "internalType": "uint256",
          "name": "_value",
          "type": "uint256"
        }
      ],
      "name": "Approval",
      "type": "event"
    },
    {
      "anonymous": false,
      "inputs": [
        {
          "indexed": true,
          "internalType": "address",
          "name": "_from",
          "type": "address"
        },
        {
          "indexed": true,
          "internalType": "address",
          "name": "_to",
          "type": "address"
        },
        {
          "indexed": false,
          "internalType": "uint256",
          "name": "_value",
          "type": "uint256"
        }
      ],
      "name": "Transfer",
      "type": "event"
    },
    {
      "constant": true,
      "inputs": [
        {
          "internalType": "address",
          "name": "",
          "type": "address"
        },
        {
          "internalType": "address",
          "name": "",
          "type": "address"
        }
      ],
      "name": "allowance",
      "outputs": [
        {
          "internalType": "uint256",
          "name": "",
          "type": "uint256"
        }
      ],
      "payable": false,
      "stateMutability": "view",
      "type": "function"
    },
    {
      "constant": true,
      "inputs": [
        {
          "internalType": "address",
          "name": "",
          "type": "address"
        }
      ],
      "name": "balanceOf",
      "outputs": [
        {
          "internalType": "uint256",
          "name": "",
          "type": "uint256"
        }
      ],
      "payable": false,
      "stateMutability": "view",
      "type": "function"
    },
    {
      "constant": true,
      "inputs": [],
      "name": "decimals",
      "outputs": [
        {
          "internalType": "uint8",
          "name": "",
          "type": "uint8"
        }
      ],
      "payable": false,
      "stateMutability": "view",
      "type": "function"
    },
    {
      "constant": true,
      "inputs": [],
      "name": "name",
      "outputs": [
        {
          "internalType": "string",
          "name": "",
          "type": "string"
        }
      ],
      "payable": false,
      "stateMutability": "view",
      "type": "function"
    },
    {
      "constant": true,
      "inputs": [],
      "name": "standard",
      "outputs": [
        {
          "internalType": "string",
          "name": "",
          "type": "string"
        }
      ],
      "payable": false,
      "stateMutability": "view",
      "type": "function"
    },
    {
      "constant": true,
      "inputs": [],
      "name": "symbol",
      "outputs": [
        {
          "internalType": "string",
          "name": "",
          "type": "string"
        }
      ],
      "payable": false,
      "stateMutability": "view",
      "type": "function"
    },
    {
      "constant": true,
      "inputs": [],
      "name": "totalSupply",
      "outputs": [
        {
          "internalType": "uint256",
          "name": "",
          "type": "uint256"
        }
      ],
      "payable": false,
      "stateMutability": "view",
      "type": "function"
    },
    {
      "constant": false,
      "inputs": [],
      "name": "deactivate",
      "outputs": [],
      "payable": false,
      "stateMutability": "nonpayable",
      "type": "function"
    },
    {
      "constant": false,
      "inputs": [],
      "name": "activate",
      "outputs": [],
      "payable": false,
      "stateMutability": "nonpayable",
      "type": "function"
    },
    {
      "constant": false,
      "inputs": [
        {
          "internalType": "address",
          "name": "_to",
          "type": "address"
        },
        {
          "internalType": "uint256",
          "name": "_value",
          "type": "uint256"
        }
      ],
      "name": "transfer",
      "outputs": [
        {
          "internalType": "bool",
          "name": "success",
          "type": "bool"
        }
      ],
      "payable": false,
      "stateMutability": "nonpayable",
      "type": "function"
    },
    {
      "constant": false,
      "inputs": [
        {
          "internalType": "address",
          "name": "_spender",
          "type": "address"
        },
        {
          "internalType": "uint256",
          "name": "_value",
          "type": "uint256"
        }
      ],
      "name": "approve",
      "outputs": [
        {
          "internalType": "bool",
          "name": "success",
          "type": "bool"
        }
      ],
      "payable": false,
      "stateMutability": "nonpayable",
      "type": "function"
    },
    {
      "constant": false,
      "inputs": [
        {
          "internalType": "address",
          "name": "_from",
          "type": "address"
        },
        {
          "internalType": "address",
          "name": "_to",
          "type": "address"
        },
        {
          "internalType": "uint256",
          "name": "_value",
          "type": "uint256"
        }
      ],
      "name": "transferFrom",
      "outputs": [
        {
          "internalType": "bool",
          "name": "success",
          "type": "bool"
        }
      ],
      "payable": false,
      "stateMutability": "nonpayable",
      "type": "function"
    },
    {
      "constant": false,
      "inputs": [
        {
          "internalType": "uint256",
          "name": "_value",
          "type": "uint256"
        }
      ],
      "name": "BurnCoin",
      "outputs": [
        {
          "internalType": "bool",
          "name": "",
          "type": "bool"
        }
      ],
      "payable": false,
      "stateMutability": "nonpayable",
      "type": "function"
    }
  ],
  "bytecode": "0x60806040526012600160006101000a81548160ff021916908360ff1602179055506040518060400160405280600881526020017f426f6c74636f696e000000000000000000000000000000000000000000000000815250600290805190602001906200006d929190620001bb565b506040518060400160405280600381526020017f424c54000000000000000000000000000000000000000000000000000000000081525060039080519060200190620000bb929190620001bb565b506040518060400160405280600d81526020017f426f6c74636f696e2076312e30000000000000000000000000000000000000008152506004908051906020019062000109929190620001bb565b506001600560146101000a81548160ff0219169083151502179055503480156200013257600080fd5b506040516200109c3803806200109c833981810160405260208110156200015857600080fd5b81019080805190602001909291905050508060008190555080600660003373ffffffffffffffffffffffffffffffffffffffff1673ffffffffffffffffffffffffffffffffffffffff16815260200190815260200160002081905550506200026a565b828054600181600116156101000203166002900490600052602060002090601f016020900481019282601f10620001fe57805160ff19168380011785556200022f565b828001600101855582156200022f579182015b828111156200022e57825182559160200191906001019062000211565b5b5090506200023e919062000242565b5090565b6200026791905b808211156200026357600081600090555060010162000249565b5090565b90565b610e22806200027a6000396000f3fe608060405234801561001057600080fd5b50600436106100cf5760003560e01c806351b42b001161008c57806395d89b411161006657806395d89b4114610374578063a9059cbb146103f7578063ce6e73ac1461045d578063dd62ed3e146104a3576100cf565b806351b42b001461028f5780635a3b7e421461029957806370a082311461031c576100cf565b806306fdde03146100d4578063095ea7b3146101575780630f15f4c0146101bd57806318160ddd146101c757806323b872dd146101e5578063313ce5671461026b575b600080fd5b6100dc61051b565b6040518080602001828103825283818151815260200191508051906020019080838360005b8381101561011c578082015181840152602081019050610101565b50505050905090810190601f1680156101495780820380516001836020036101000a031916815260200191505b509250505060405180910390f35b6101a36004803603604081101561016d57600080fd5b81019080803573ffffffffffffffffffffffffffffffffffffffff169060200190929190803590602001909291905050506105b9565b604051808215151515815260200191505060405180910390f35b6101c5610719565b005b6101cf6107aa565b6040518082815260200191505060405180910390f35b610251600480360360608110156101fb57600080fd5b81019080803573ffffffffffffffffffffffffffffffffffffffff169060200190929190803573ffffffffffffffffffffffffffffffffffffffff169060200190929190803590602001909291905050506107b0565b604051808215151515815260200191505060405180910390f35b610273610a34565b604051808260ff1660ff16815260200191505060405180910390f35b610297610a47565b005b6102a1610ad7565b6040518080602001828103825283818151815260200191508051906020019080838360005b838110156102e15780820151818401526020810190506102c6565b50505050905090810190601f16801561030e5780820380516001836020036101000a031916815260200191505b509250505060405180910390f35b61035e6004803603602081101561033257600080fd5b81019080803573ffffffffffffffffffffffffffffffffffffffff169060200190929190505050610b75565b6040518082815260200191505060405180910390f35b61037c610b8d565b6040518080602001828103825283818151815260200191508051906020019080838360005b838110156103bc5780820151818401526020810190506103a1565b50505050905090810190601f1680156103e95780820380516001836020036101000a031916815260200191505b509250505060405180910390f35b6104436004803603604081101561040d57600080fd5b81019080803573ffffffffffffffffffffffffffffffffffffffff16906020019092919080359060200190929190505050610c2b565b604051808215151515815260200191505060405180910390f35b6104896004803603602081101561047357600080fd5b8101908080359060200190929190505050610d9b565b604051808215151515815260200191505060405180910390f35b610505600480360360408110156104b957600080fd5b81019080803573ffffffffffffffffffffffffffffffffffffffff169060200190929190803573ffffffffffffffffffffffffffffffffffffffff169060200190929190505050610dc8565b6040518082815260200191505060405180910390f35b60028054600181600116156101000203166002900480601f0160208091040260200160405190810160405280929190818152602001828054600181600116156101000203166002900480156105b15780601f10610586576101008083540402835291602001916105b1565b820191906000526020600020905b81548152906001019060200180831161059457829003601f168201915b505050505081565b6000600560149054906101000a900460ff166105d457600080fd5b81600660003373ffffffffffffffffffffffffffffffffffffffff1673ffffffffffffffffffffffffffffffffffffffff16815260200190815260200160002054101561062057600080fd5b81600760003373ffffffffffffffffffffffffffffffffffffffff1673ffffffffffffffffffffffffffffffffffffffff16815260200190815260200160002060008573ffffffffffffffffffffffffffffffffffffffff1673ffffffffffffffffffffffffffffffffffffffff168152602001908152602001600020600082825401925050819055508273ffffffffffffffffffffffffffffffffffffffff163373ffffffffffffffffffffffffffffffffffffffff167f8c5be1e5ebec7d5bd14f71427d1e84f3dd0314c0f7b2291e5b200ac8c7c3b925846040518082815260200191505060405180910390a36001905092915050565b3373ffffffffffffffffffffffffffffffffffffffff16600560009054906101000a900473ffffffffffffffffffffffffffffffffffffffff1673ffffffffffffffffffffffffffffffffffffffff161461077357600080fd5b600560149054906101000a900460ff161561078d57600080fd5b6001600560146101000a81548160ff021916908315150217905550565b60005481565b6000600560149054906101000a900460ff166107cb57600080fd5b81600660008673ffffffffffffffffffffffffffffffffffffffff1673ffffffffffffffffffffffffffffffffffffffff16815260200190815260200160002054101561081757600080fd5b81600760008673ffffffffffffffffffffffffffffffffffffffff1673ffffffffffffffffffffffffffffffffffffffff16815260200190815260200160002060003373ffffffffffffffffffffffffffffffffffffffff1673ffffffffffffffffffffffffffffffffffffffff1681526020019081526020016000205410156108a057600080fd5b81600660008673ffffffffffffffffffffffffffffffffffffffff1673ffffffffffffffffffffffffffffffffffffffff1681526020019081526020016000206000828254039250508190555081600660008573ffffffffffffffffffffffffffffffffffffffff1673ffffffffffffffffffffffffffffffffffffffff1681526020019081526020016000206000828254019250508190555081600760008673ffffffffffffffffffffffffffffffffffffffff1673ffffffffffffffffffffffffffffffffffffffff16815260200190815260200160002060003373ffffffffffffffffffffffffffffffffffffffff1673ffffffffffffffffffffffffffffffffffffffff168152602001908152602001600020600082825403925050819055508273ffffffffffffffffffffffffffffffffffffffff168473ffffffffffffffffffffffffffffffffffffffff167fddf252ad1be2c89b69c2b068fc378daa952ba7f163c4a11628f55a4df523b3ef846040518082815260200191505060405180910390a3600190509392505050565b600160009054906101000a900460ff1681565b3373ffffffffffffffffffffffffffffffffffffffff16600560009054906101000a900473ffffffffffffffffffffffffffffffffffffffff1673ffffffffffffffffffffffffffffffffffffffff1614610aa157600080fd5b600560149054906101000a900460ff16610aba57600080fd5b6000600560146101000a81548160ff021916908315150217905550565b60048054600181600116156101000203166002900480601f016020809104026020016040519081016040528092919081815260200182805460018160011615610100020316600290048015610b6d5780601f10610b4257610100808354040283529160200191610b6d565b820191906000526020600020905b815481529060010190602001808311610b5057829003601f168201915b505050505081565b60066020528060005260406000206000915090505481565b60038054600181600116156101000203166002900480601f016020809104026020016040519081016040528092919081815260200182805460018160011615610100020316600290048015610c235780601f10610bf857610100808354040283529160200191610c23565b820191906000526020600020905b815481529060010190602001808311610c0657829003601f168201915b505050505081565b6000600560149054906101000a900460ff16610c4657600080fd5b81600660003373ffffffffffffffffffffffffffffffffffffffff1673ffffffffffffffffffffffffffffffffffffffff168152602001908152602001600020541015610c9257600080fd5b81600660003373ffffffffffffffffffffffffffffffffffffffff1673ffffffffffffffffffffffffffffffffffffffff1681526020019081526020016000206000828254039250508190555081600660008573ffffffffffffffffffffffffffffffffffffffff1673ffffffffffffffffffffffffffffffffffffffff168152602001908152602001600020600082825401925050819055508273ffffffffffffffffffffffffffffffffffffffff163373ffffffffffffffffffffffffffffffffffffffff167fddf252ad1be2c89b69c2b068fc378daa952ba7f163c4a11628f55a4df523b3ef846040518082815260200191505060405180910390a36001905092915050565b6000600560149054906101000a900460ff16610db657600080fd5b610dc1600083610c2b565b9050919050565b600760205281600052604060002060205280600052604060002060009150915050548156fea265627a7a723158200c513c7989c8d99883a0a2e7ace181c11a0b911c8e417671b62adadb38c293da64736f6c63430005100032",
  "source": "pragma solidity 0.5.16;\r\n\r\ncontract Boltcoin{\r\n    uint public totalSupply;\r\n    uint8 public decimals=18;\r\n    string public name=\"Boltcoin\";\r\n    string public symbol=\"BLT\";\r\n    string public standard=\"Boltcoin v1.0\";\r\n    address admin;\r\n    bool isActive=true;\r\n\r\n    mapping(address=>uint) public balanceOf;\r\n    mapping(address=>mapping(address=>uint)) public allowance;\r\n\r\n    modifier onlyOwner(){\r\n        require(admin==msg.sender);\r\n        _;\r\n    }\r\n\r\n    modifier active(){\r\n        require(isActive);\r\n        _;\r\n    }\r\n\r\n    modifier deactive(){\r\n         require(!isActive);\r\n        _;\r\n    }\r\n    \r\n    event Transfer\r\n    (\r\n    \taddress indexed _from,\r\n    \taddress indexed _to, \r\n    \tuint256 _value\r\n    );\r\n\r\n    event Approval\r\n    (\r\n    \taddress indexed _owner, \r\n    \taddress indexed _spender, \r\n    \tuint256 _value\r\n    );\r\n\r\n    constructor(uint _initialSupply) public{\r\n        totalSupply=_initialSupply;\r\n        balanceOf[msg.sender]=_initialSupply;        \r\n        //admin=msg.sender;\r\n    }\r\n\r\n    function deactivate() public onlyOwner active{\r\n        isActive=false;\r\n    }\r\n\r\n    function activate() public onlyOwner deactive{\r\n        isActive=true;\r\n    }\r\n\r\n\r\n\r\n    function transfer(address _to, uint256 _value) public active  returns (bool success){\r\n    \trequire(balanceOf[msg.sender]>=_value);\r\n\r\n    \tbalanceOf[msg.sender]-=_value;\r\n    \tbalanceOf[_to]+=_value;\r\n    \r\n    \temit Transfer(msg.sender,_to,_value);\r\n    \treturn true;\r\n    }\r\n\r\n\r\n    function approve(address _spender, uint256 _value) public active   returns (bool success){\r\n\r\n    \trequire(balanceOf[msg.sender]>=_value);\r\n\r\n    \tallowance[msg.sender][_spender]+=_value;\r\n\r\n    \temit Approval(msg.sender,_spender,_value);\r\n    \treturn true;\r\n    }\r\n    \r\n    function transferFrom(address _from, address _to, uint256 _value) public active returns (bool success){\r\n    \trequire(balanceOf[_from]>=_value);\r\n    \trequire(allowance[_from][msg.sender]>=_value);\r\n    \tbalanceOf[_from]-=_value;\r\n    \tbalanceOf[_to]+=_value;\r\n    \tallowance[_from][msg.sender]-=_value;\r\n\r\n    \temit Transfer(_from,_to,_value);\r\n    \treturn true;\r\n    }\r\n\r\n    function BurnCoin (uint256 _value) public active returns(bool){\r\n        return transfer(address(0),_value);\r\n    }\r\n    \r\n}",
  "sourcePath": "E:\\Crypto currency\\contracts\\Boltcoin.sol",
  "compiler": {
    "name": "solc",
    "version": "0.5.16+commit.9c3226ce.Emscripten.clang"
  },
  "schemaVersion": "3.2.0",
  "updatedAt": "2020-06-05T16:59:49.979Z",
  "networkType": "ethereum",
  "devdoc": {
    "methods": {}
  },
  "userdoc": {
    "methods": {}
  }
}