{
  "contractName": "BoltcoinSale",
  "abi": [
    {
      "inputs": [
        {
          "internalType": "contract Boltcoin",
          "name": "_tokenAddress",
          "type": "address"
        },
        {
          "internalType": "uint256",
          "name": "_tokenPrice",
          "type": "uint256"
        }
      ],
      "payable": false,
      "stateMutability": "nonpayable",
      "type": "constructor"
    },
    {
      "anonymous": false,
      "inputs": [
        {
          "indexed": false,
          "internalType": "address",
          "name": "buyer",
          "type": "address"
        },
        {
          "indexed": false,
          "internalType": "uint256",
          "name": "tokenBought",
          "type": "uint256"
        }
      ],
      "name": "Sell",
      "type": "event"
    },
    {
      "constant": true,
      "inputs": [],
      "name": "tokenContract",
      "outputs": [
        {
          "internalType": "contract Boltcoin",
          "name": "",
          "type": "address"
        }
      ],
      "payable": false,
      "stateMutability": "view",
      "type": "function"
    },
    {
      "constant": true,
      "inputs": [],
      "name": "tokenPrice",
      "outputs": [
        {
          "internalType": "uint256",
          "name": "",
          "type": "uint256"
        }
      ],
      "payable": false,
      "stateMutability": "view",
      "type": "function"
    },
    {
      "constant": true,
      "inputs": [],
      "name": "tokensold",
      "outputs": [
        {
          "internalType": "uint256",
          "name": "",
          "type": "uint256"
        }
      ],
      "payable": false,
      "stateMutability": "view",
      "type": "function"
    },
    {
      "constant": false,
      "inputs": [
        {
          "internalType": "uint256",
          "name": "_numberOfTokens",
          "type": "uint256"
        }
      ],
      "name": "buyTokens",
      "outputs": [],
      "payable": true,
      "stateMutability": "payable",
      "type": "function"
    },
    {
      "constant": true,
      "inputs": [
        {
          "internalType": "address payable",
          "name": "addr",
          "type": "address"
        }
      ],
      "name": "balanceContract",
      "outputs": [
        {
          "internalType": "uint256",
          "name": "",
          "type": "uint256"
        }
      ],
      "payable": false,
      "stateMutability": "view",
      "type": "function"
    },
    {
      "constant": false,
      "inputs": [],
      "name": "withdrawfunds",
      "outputs": [
        {
          "internalType": "bool",
          "name": "",
          "type": "bool"
        }
      ],
      "payable": true,
      "stateMutability": "payable",
      "type": "function"
    },
    {
      "constant": false,
      "inputs": [],
      "name": "EndSale",
      "outputs": [],
      "payable": false,
      "stateMutability": "nonpayable",
      "type": "function"
    }
  ],
  "bytecode": "0x608060405234801561001057600080fd5b506040516109a23803806109a28339818101604052604081101561003357600080fd5b81019080805190602001909291908051906020019092919050505033600260006101000a81548173ffffffffffffffffffffffffffffffffffffffff021916908373ffffffffffffffffffffffffffffffffffffffff16021790555081600360006101000a81548173ffffffffffffffffffffffffffffffffffffffff021916908373ffffffffffffffffffffffffffffffffffffffff1602179055508060008190555050506108ba806100e86000396000f3fe6080604052600436106100705760003560e01c80636c343ffe1161004e5780636c343ffe1461012557806376b1dda3146101475780637ff9b5961461015e578063ca2994101461018957610070565b80633610724e1461007557806338c40595146100a357806355a373d6146100ce575b600080fd5b6100a16004803603602081101561008b57600080fd5b81019080803590602001909291905050506101ee565b005b3480156100af57600080fd5b506100b8610456565b6040518082815260200191505060405180910390f35b3480156100da57600080fd5b506100e361045c565b604051808273ffffffffffffffffffffffffffffffffffffffff1673ffffffffffffffffffffffffffffffffffffffff16815260200191505060405180910390f35b61012d610482565b604051808215151515815260200191505060405180910390f35b34801561015357600080fd5b5061015c61055b565b005b34801561016a57600080fd5b506101736107d8565b6040518082815260200191505060405180910390f35b34801561019557600080fd5b506101d8600480360360208110156101ac57600080fd5b81019080803573ffffffffffffffffffffffffffffffffffffffff1690602001909291905050506107de565b6040518082815260200191505060405180910390f35b80600360009054906101000a900473ffffffffffffffffffffffffffffffffffffffff1673ffffffffffffffffffffffffffffffffffffffff166370a08231306040518263ffffffff1660e01b8152600401808273ffffffffffffffffffffffffffffffffffffffff1673ffffffffffffffffffffffffffffffffffffffff16815260200191505060206040518083038186803b15801561028e57600080fd5b505afa1580156102a2573d6000803e3d6000fd5b505050506040513d60208110156102b857600080fd5b810190808051906020019092919050505010156102d457600080fd5b6102e081600054610859565b34146102eb57600080fd5b600360009054906101000a900473ffffffffffffffffffffffffffffffffffffffff1673ffffffffffffffffffffffffffffffffffffffff1663a9059cbb33836040518363ffffffff1660e01b8152600401808373ffffffffffffffffffffffffffffffffffffffff1673ffffffffffffffffffffffffffffffffffffffff16815260200182815260200192505050602060405180830381600087803b15801561039457600080fd5b505af11580156103a8573d6000803e3d6000fd5b505050506040513d60208110156103be57600080fd5b81019080805190602001909291905050506103d857600080fd5b806001600082825401925050819055507f5e5e995ce3133561afceaa51a9a154d5db228cd7525d34df5185582c18d3df093382604051808373ffffffffffffffffffffffffffffffffffffffff1673ffffffffffffffffffffffffffffffffffffffff1681526020018281526020019250505060405180910390a150565b60015481565b600360009054906101000a900473ffffffffffffffffffffffffffffffffffffffff1681565b60003373ffffffffffffffffffffffffffffffffffffffff16600260009054906101000a900473ffffffffffffffffffffffffffffffffffffffff1673ffffffffffffffffffffffffffffffffffffffff16146104de57600080fd5b600260009054906101000a900473ffffffffffffffffffffffffffffffffffffffff1673ffffffffffffffffffffffffffffffffffffffff166108fc610528600154600054610859565b9081150290604051600060405180830381858888f19350505050158015610553573d6000803e3d6000fd5b506001905090565b600260009054906101000a900473ffffffffffffffffffffffffffffffffffffffff1673ffffffffffffffffffffffffffffffffffffffff163373ffffffffffffffffffffffffffffffffffffffff16146105b557600080fd5b600360009054906101000a900473ffffffffffffffffffffffffffffffffffffffff1673ffffffffffffffffffffffffffffffffffffffff1663a9059cbb600260009054906101000a900473ffffffffffffffffffffffffffffffffffffffff16600360009054906101000a900473ffffffffffffffffffffffffffffffffffffffff1673ffffffffffffffffffffffffffffffffffffffff166370a08231306040518263ffffffff1660e01b8152600401808273ffffffffffffffffffffffffffffffffffffffff1673ffffffffffffffffffffffffffffffffffffffff16815260200191505060206040518083038186803b1580156106b557600080fd5b505afa1580156106c9573d6000803e3d6000fd5b505050506040513d60208110156106df57600080fd5b81019080805190602001909291905050506040518363ffffffff1660e01b8152600401808373ffffffffffffffffffffffffffffffffffffffff1673ffffffffffffffffffffffffffffffffffffffff16815260200182815260200192505050602060405180830381600087803b15801561075957600080fd5b505af115801561076d573d6000803e3d6000fd5b505050506040513d602081101561078357600080fd5b810190808051906020019092919050505061079d57600080fd5b600260009054906101000a900473ffffffffffffffffffffffffffffffffffffffff1673ffffffffffffffffffffffffffffffffffffffff16ff5b60005481565b60003373ffffffffffffffffffffffffffffffffffffffff16600260009054906101000a900473ffffffffffffffffffffffffffffffffffffffff1673ffffffffffffffffffffffffffffffffffffffff161461083a57600080fd5b8173ffffffffffffffffffffffffffffffffffffffff16319050919050565b600080821480610876575082828385029250828161087357fe5b04145b61087f57600080fd5b9291505056fea265627a7a72315820917c7e3137456d6ade8fa9cdbb8d181b3958ed31d730292d9da7732b3cd7197264736f6c63430005100032",
  "source": "pragma solidity 0.5.16;\r\nimport \"./Boltcoin.sol\";\r\n\r\ncontract BoltcoinSale{\r\n\r\n\tuint public tokenPrice;\r\n\tuint public tokensold;\r\n\taddress payable admin;\r\n\tBoltcoin public tokenContract;\r\n\r\n\tevent Sell\r\n\t(\r\n\t\taddress buyer,\r\n\t\tuint tokenBought\r\n\t);\r\n\r\n\tmodifier OnlyOwner{\r\n\t\trequire(admin==msg.sender);\r\n\t\t_;\r\n\t}\r\n\r\n\r\n\tconstructor(Boltcoin _tokenAddress,uint _tokenPrice) public{\r\n\t\tadmin=msg.sender;\r\n\t\ttokenContract=_tokenAddress;\r\n\t\ttokenPrice=_tokenPrice;\r\n\t}\r\n\r\n\tfunction multiply(uint x,uint y) internal pure returns(uint z){\r\n\r\n\t\trequire(y==0||(z=x*y)/y==x);\r\n\t}\r\n\r\n\tfunction buyTokens(uint _numberOfTokens) public payable{\r\n\r\n\t\trequire(tokenContract.balanceOf(address(this))>=_numberOfTokens);\r\n\t\trequire(msg.value==multiply(_numberOfTokens,tokenPrice));\r\n\t\trequire(tokenContract.transfer(msg.sender,_numberOfTokens));\r\n\r\n\r\n\t\ttokensold+=_numberOfTokens;\r\n\t\temit Sell(msg.sender,_numberOfTokens);\r\n\t}\r\n\r\n\tfunction balanceContract(address payable addr) public view OnlyOwner returns(uint){\r\n\t\t\r\n\t\treturn addr.balance;\r\n\t}\r\n\r\n\tfunction withdrawfunds() public payable OnlyOwner returns(bool){\r\n\t\tadmin.transfer(multiply(tokensold,tokenPrice));\r\n\t\treturn true;\r\n\t}\r\n\r\n\tfunction EndSale() public{\r\n\t\trequire(msg.sender==admin);\r\n\t\trequire(tokenContract.transfer(admin,tokenContract.balanceOf(address(this))));\r\n\t\tselfdestruct(admin);\r\n\r\n\r\n\t}\r\n\r\n}\r\n",
  "sourcePath": "E:\\Crypto currency\\contracts\\BoltcoinSale.sol",
  "compiler": {
    "name": "solc",
    "version": "0.5.16+commit.9c3226ce.Emscripten.clang"
  },
  "schemaVersion": "3.2.0",
  "updatedAt": "2020-06-05T16:59:49.989Z",
  "networkType": "ethereum",
  "devdoc": {
    "methods": {}
  },
  "userdoc": {
    "methods": {}
  }
}